:1000000080200020A93300006F6F00007D330000C6
:100010007D3300007D3300007D3300007D33000020
:10002000000000000000000000000000F52C0000AF
:100030007D330000000000009D2C00007D33000097
:10004000752D0000752D0000752D0000752D000028
:10005000752D0000752D0000752D0000752D000018
:10006000752D0000752D0000752D0000752D000008
:10007000752D0000752D0000752D0000752D0000F8
:10008000752D0000752D0000752D0000752D0000E8
:10009000752D0000752D0000752D0000752D0000D8
:1000A000752D0000752D0000752D0000752D0000C8
:1000B000752D0000752D0000752D0000752D0000B8
:1000C000752D0000752D0000752D0000752D0000A8
:1000D000752D0000752D0000752D0000752D000098
:1000E000752D0000752D0000752D0000752D000088
:1000F000752D0000752D0000752D0000752D000078
:10010000752D0000752D0000752D0000752D000067
:10011000752D0000752D0000752D0000752D000057
:10012000752D0000752D0000752D0000752D000047
:10013000752D0000752D0000752D0000752D000037
:04014000752D000019
:04014400FFFFFFFFBB
:1001480081F0004102E000BF83F0004330B54FEA80
:1001580041044FEA430594EA050F08BF90EA020FED
:100168001FBF54EA000C55EA020C7FEA645C7FEA80
:10017800655C00F0E2804FEA5454D4EB5555B8BFA3
:100188006D420CDD2C4480EA020281EA030382EA14
:10019800000083EA010180EA020281EA0303362DA6
:1001A80088BF30BD11F0004F4FEA01314FF4801C79
:1001B8004CEA113102D0404261EB410113F0004F8B
:1001C8004FEA03334CEA133302D0524263EB430342
:1001D80094EA050F00F0A780A4F10104D5F1200EE0
:1001E8000DDB02FA0EFC22FA05F2801841F100013B
:1001F80003FA0EF2801843FA05F359410EE0A5F10F
:1002080020050EF1200E012A03FA0EFC28BF4CF03F
:10021800020C43FA05F3C01851EBE37101F00045F5
:1002280007D54FF0000EDCF1000C7EEB00006EEB02
:100238000101B1F5801F1BD3B1F5001F0CD349088C
:100248005FEA30004FEA3C0C04F101044FEA4452E3
:1002580012F5800F80F09A80BCF1004F08BF5FEA6A
:10026800500C50F1000041EB045141EA050130BD4A
:100278005FEA4C0C404141EB0101013C28BFB1F55C
:10028800801FE9D291F0000F04BF01460020B1FAA7
:1002980081F308BF2033A3F10B03B3F120020CDA7A
:1002A8000C3208DD02F1140CC2F10C0201FA0CF058
:1002B80021FA02F10CE002F11402D8BFC2F1200CBD
:1002C80001FA02F120FA0CFCDCBF41EA0C01904073
:1002D800E41AA2BF01EB0451294330BD6FEA0404BC
:1002E8001F3C1CDA0C340EDC04F11404C4F12002A7
:1002F80020FA04F001FA02F340EA030021FA04F3B9
:1003080045EA030130BDC4F10C04C4F1200220FA0F
:1003180002F001FA04F340EA0300294630BD21FA4D
:1003280004F0294630BD94F0000F83F4801306BF13
:1003380081F480110134013D4EE77FEA645C18BF07
:100348007FEA655C29D094EA050F08BF90EA020F9E
:1003580005D054EA000C04BF1946104630BD91EA96
:10036800030F1EBF0021002030BD5FEA545C05D199
:100378004000494128BF41F0004130BD14F58004D8
:100388003CBF01F5801130BD01F0004545F0FE414C
:1003980041F470014FF0000030BD7FEA645C1ABF81
:1003A800194610467FEA655C1CBF0B46024650EAB8
:1003B800013406BF52EA033591EA030F41F40021E4
:1003C80030BD00BF90F0000F04BF0021704730B56A
:1003D8004FF4806404F132044FF000054FF000013F
:1003E80050E700BF90F0000F04BF0021704730B500
:1003F8004FF4806404F1320410F0004548BF4042D5
:100408004FF000013EE700BF42004FEAE2014FEA29
:1004180031014FEA02701FBF12F07F4393F07F4F04
:1004280081F06051704732F07F4208BF704793F007
:100438007F4F04BF41F40021704730B54FF460741A
:1004480001F0004521F000411CE700BF50EA01021D
:1004580008BF704730B54FF000050AE050EA0102C6
:1004680008BF704730B511F0004502D5404261EB36
:1004780041014FF4806404F132045FEA915C3FF477
:10048800D8AE4FF003025FEADC0C18BF03325FEA14
:10049800DC0C18BF033202EBDC02C2F1200300FAC5
:1004A80003FC20FA02F001FA03FE40EA0E0021FAEA
:1004B80002F11444BDE600BF70B54FF0FF0C4CF4D8
:1004C800E06C1CEA11541DBF1CEA135594EA0C0F8A
:1004D80095EA0C0F00F0DEF82C4481EA030621EAC5
:1004E8004C5123EA4C5350EA013518BF52EA033500
:1004F80041F4801143F4801338D0A0FB02CE4FF0B2
:100508000005E1FB02E506F00042E0FB03E54FF0E1
:100518000006E1FB03569CF0000F18BF4EF0010ED9
:10052800A4F1FF04B6F5007F64F5407404D25FEAD5
:100538004E0E6D4146EB060642EAC62141EA555188
:100548004FEAC52040EA5E504FEACE2EB4F1FD0CCA
:1005580088BFBCF5E06F1ED8BEF1004F08BF5FEA48
:10056800500E50F1000041EB045170BD06F00046FA
:1005780046EA010140EA020081EA0301B4EB5C04A7
:10058800C2BFD4EB0C0541EA045170BD41F480119F
:100598004FF0000E013C00F3AB8014F1360FDEBFC4
:1005A800002001F0004170BDC4F10004203C35DAA0
:1005B8000C341BDC04F11404C4F1200500FA05F323
:1005C80020FA04F001FA05F240EA020001F00042C4
:1005D80021F0004110EBD37021FA04F642EB06013A
:1005E8005EEA430E08BF20EAD37070BDC4F10C0464
:1005F800C4F1200500FA04F320FA05F001FA04F228
:1006080040EA020001F0004110EBD37041F1000113
:100618005EEA430E08BF20EAD37070BDC4F120051E
:1006280000FA05F24EEA020E20FA04F301FA05F286
:1006380043EA020321FA04F001F0004121FA04F22E
:1006480020EA020000EBD3705EEA430E08BF20EAFE
:10065800D37070BD94F0000F0FD101F00046400038
:1006680041EB010111F4801F08BF013CF7D041EABA
:10067800060195F0000F18BF704703F000465200BE
:1006880043EB030313F4801F08BF013DF7D043EA8F
:100698000603704794EA0C0F0CEA135518BF95EA45
:1006A8000C0F0CD050EA410618BF52EA4306D1D1CC
:1006B80081EA030101F000414FF0000070BD50EAEB
:1006C800410606BF1046194652EA430619D094EA75
:1006D8000C0F02D150EA013613D195EA0C0F05D15F
:1006E80052EA03361CBF104619460AD181EA0301B3
:1006F80001F0004141F0FE4141F470014FF000006B
:1007080070BD41F0FE4141F4780170BD70B54FF005
:10071800FF0C4CF4E06C1CEA11541DBF1CEA135585
:1007280094EA0C0F95EA0C0F00F0A7F8A4EB050467
:1007380081EA030E52EA03354FEA013100F088805E
:100748004FEA03334FF0805545EA131343EA126327
:100758004FEA022245EA111545EA10654FEA0026DC
:100768000EF000419D4208BF964244F1FD0404F595
:10077800407402D25B084FEA3202B61A65EB0305F1
:100788005B084FEA32024FF480104FF4002CB6EBAE
:10079800020E75EB030E22BFB61A754640EA0C002E
:1007A8005B084FEA3202B6EB020E75EB030E22BF6E
:1007B800B61A754640EA5C005B084FEA3202B6EBAF
:1007C800020E75EB030E22BFB61A754640EA9C006E
:1007D8005B084FEA3202B6EB020E75EB030E22BF3E
:1007E800B61A754640EADC0055EA060E18D04FEAFC
:1007F800051545EA16754FEA06164FEAC30343EA9C
:1008080052734FEAC2025FEA1C1CC0D111F4801F68
:100818000BD141EA00014FF000004FF0004CB6E761
:1008280011F4801F04BF01430020B4F1FD0C88BF00
:10083800BCF5E06F3FF6AFAEB5EB030C04BFB6EB0B
:10084800020C5FEA500C50F1000041EB045170BDFE
:100858000EF0004E4EEA113114EB5C04C2BFD4EB2B
:100868000C0541EA045170BD41F480114FF0000EAF
:10087800013C90E645EA060E8DE60CEA135594EA2B
:100888000C0F08BF95EA0C0F3FF43BAF94EA0C0F2E
:100898000AD150EA01347FF434AF95EA0C0F7FF4A3
:1008A80025AF104619462CE795EA0C0F06D152EAF7
:1008B80003353FF4FDAE1046194622E750EA4106DB
:1008C80018BF52EA43067FF4C5AE50EA41047FF4EC
:1008D8000DAF52EA43057FF4EBAE12E74FEA41024F
:1008E80012F5001215D211D56FF47873B3EB62527A
:1008F80012D94FEAC12343F0004343EA505311F0A1
:10090800004F23FA02F018BF404270474FF0000032
:10091800704750EA013005D111F0004008BF6FF070
:10092800004070474FF00000704700BF53B94AB904
:10093800002908BF00281CBF4FF0FF314FF0FF30DF
:1009480000F00CB8ADF1080C6DE904CE00F008F821
:10095800DDF804E0DDE9022304B07047704700BF0A
:100968002DE9F04786468C460846089E154674468B
:100978001946002B40F0C1808542B2FA82F245D96F
:100988004AB1C2F1200300FA02FC954094402EFAC5
:1009980003F343EA0C0C4FEA154EA8B2230CBCFB38
:1009A800FEF80EFB18CC08FB00F943EA0C43994506
:1009B80028D9EB1808F1FF3704D2994502D9A8F1D4
:1009C80002072B44A3EB0903A4B2B3FBFEFC0EFB06
:1009D8001C330CFB00F044EA0344A04214D92C1940
:1009E8000CF1FF3304D2A04202D9ACF102032C442B
:1009F800241A43EA07401EB1D440002334607360D0
:100A0800BDE8F0874746DDE76346F1E792BB431B45
:100A180001214FEA154EAFB2200CB3FBFEFC0EFBD2
:100A28001C330CFB07F840EA0343984561D9EB18DF
:100A38000CF1FF3004D2984502D9ACF102002B44E6
:100A4800A3EB0803A4B2B3FBFEFC0EFB1C330CFBA8
:100A580007F744EA0344A7424DD92C190CF1FF3398
:100A680004D2A74202D9ACF102032C44E41B43EAA6
:100A78000040C0E7C2F120039540944020FA03F1FA
:100A88002EFA03F34FEA154E9040AFB20343B1FB81
:100A9800FEFC0EFB1C10190C0CFB07F841EA004188
:100AA800884522D969180CF1FF3004D2884502D94B
:100AB800ACF102002944A1EB08019BB2B1FBFEFC9A
:100AC8000EFB1C110CFB07F743EA01439F420ED9AA
:100AD800EB180CF1FF3104D29F4202D9ACF10201AC
:100AE8002B44DB1B41EA004193E76046E3E761469C
:100AF800F7E76046A4E76346B8E7834206D916B924
:100B0800002108467CE7C6E900E0F9E7B3FA83F775
:100B18008FB9834201D3724508D8BEEB020460EB5B
:100B2800030301209C461EB9002169E73846FAE70D
:100B3800C6E9004CF8E7C7F1200CBB400EFA07F5F0
:100B480022FA0CF42EFA0CF1BA401C4320FA0CF3EA
:100B5800B8404FEA144901431FFA84FEB3FBF9F881
:100B680009FB18300B0C08FB0EFA43EA00439A45C0
:100B780040D9E31808F1FF3004D29A4502D9A8F108
:100B880002002344A3EB0A0389B2B3FBF9F809FB7B
:100B9800183308FB0EFE41EA03418E452CD9611833
:100BA80008F1FF3304D28E4502D9A8F1020321448B
:100BB80043EA0040A1EB0E01A0FB02984145CE4656
:100BC800434602D306D14D4504D20138B9EB020E93
:100BD80068EB0403002EA7D0B5EB0E0261EB03010E
:100BE80001FA0CFC22FA07F3F9404CEA0303C6E9C0
:100BF800003199E74046C5E74346D9E700000000C1
:100C0800F8B5C9B23A291546046924D1A06BFFF793
:100C1800E9FB13A3D3E90023FFF778FD0646606BD1
:100C28000F46FFF7DFFB02460B4630463946FFF713
:100C38008DFA0646D4E90B03C01A0F46FFF7D2FB1C
:100C480002460B4630463946FFF736FCFFF746FEAC
:100C580028600020F8BD6FF08500FBE7AFF3008047
:100C68000000000080842E41012B2DE9F04738BF99
:100C78000123002580460E4617469946AA460C6968
:100C88003A21304603F050FD0AF1010AE36ACA45E9
:100C98001D44F5DB3846FFF795FB95FBF9F506464D
:100CA800206B0F46281AFFF79DFB02460B4630467D
:100CB8003946FFF72BFD0F460646FFF70FFE606328
:100CC800FFF790FB02460B4630463946FFF73CFAE1
:100CD80007A3D3E90023FFF7EFFBFFF7FFFD01466A
:100CE800A063606B88E803004046BDE8F08700BF5A
:100CF8000000000080842E41B0B5194D00AF28686F
:100D080083683921DB689847044688B16D4688B006
:100D18006A46144BC2E90530032342F8103F00230A
:100D28004FF4C251104801F03BFAAD46BD46B0BD84
:100D380028680E4D83682A463A211B699847D5E9E9
:100D480000136D4688B06A46D36104230848C2E997
:100D5800050142F8103F4FF403512346E2E700BF74
:100D680010080020D87F0000D47C0000080800206C
:100D7800F47F00002DE9F04788B0354B354D6C46BF
:100D880000AF8AB02B6019686A463348D161C2E95E
:100D9800050340F201331384304B42F8103F00231F
:100DA8004FF413512E4801F0FBF9A5462D4BFB617A
:100DB8000223BB61002307F118024FF4865128482B
:100DC80001F0EEF90521286806F042FB88B06A4672
:100DD800254B032653614FF47A73936142F8106FE1
:100DE80000234FF4C6511E4801F0DAF9A546052440
:100DF800DFF878A0DFF86890E84688B06A46C2E96C
:100E080005A442F8106F00234FF4C651484601F07C
:100E1800C7F9C5464FF40040002104F0ADFF013C7E
:100E2800EAD2134BFB610223BB6100234FF48651C6
:100E38000B4807F1180201F0B3F905234FF47A7251
:100E480038462968FFF710FFFFF756FFFCE700BF99
:100E5800587A0000100800200A80000004000001F1
:100E6800D47C0000238000003980000061800000ED
:100E7800678000002DE9F04F95B000AFD7F878B043
:100E8800BB61CBF3C00304467A623B61396251B956
:100E98000D4603784678807800EB83002044AE4204
:100EA8001AD8031B3B6294F80290E3784E467B61A4
:100EB800B9F1000F02D01BF0010F16D17B6953BBAB
:100EC8007B6A1BB12046BA69396A98473D6A284649
:100ED8005437BD46BDE8F08F00F10108404606F0E2
:100EE80079F8013040440135D9E7636894F800A0E7
:100EF800FB617B6A4FEA8A02FA6004EB8A0A002BDC
:100F080040F00281D04600263D6A09EB0A034345BA
:100F18004ED1CA4413E01BF0020FD1D094F800A0C0
:100F28004FEA8A03FB60636804EB8A0AFB617B6A09
:100F3800002B78D13D6AB9F1000F4ED14E461BF017
:100F4800050F0CBF022301237B627B690AEB43096F
:100F58000BF002033B62CA45B9D01AF8021B1AF813
:100F6800013C54F82380AD4B984502D3AC4B9845CF
:100F780039D33B69002B43D0F86905F0B9FB002849
:100F88003ED0E8468AB06A46A64B5361FB69C2E97F
:100F980006314FF400731384A34B42F8103F00232B
:100FA8004FF41251A14801F0FBF8023DC546D2E7C3
:100FB80018F8012B7B6254F8220006F00BF8FA6F40
:100FC8007B6A01303AB1D7F8802096423EBFFA6F6B
:100FD80022F816000136054499E71BF004061CBFE9
:100FE8007E6ACA44ABE73B6923B1F86905F080FB28
:100FF8000028C6D11BF0010F05D17B6AED1AAAE7BC
:101008003B6A002BA7D0404605F0E4FFFB6F43B1D5
:10101800D7F880309E423FBFFA6F431C22F8163043
:101028000136054497E7B9F1000F72D01BF00406AA
:1010380072D0C846002607F140004A46514605F0DE
:10104800D9FF7B69CA445B00BB607B690AEB430339
:101058007B610BF002037B607B699A455ED1237844
:101068001BF0020FFB61637818BF002106EB030237
:1010780008BF4FEA58011BF0010FD2B240F09D8023
:101088001BF0040F14BF4046002094F802B094F8F7
:1010980003A03B616270A070E1702046BA69F968EC
:1010A8007B6A9847051EFFF612AFFB69414623701D
:1010B8003B69BA69637084F802B07B6A84F803A05C
:1010C80007F140009847B0F10008C0F2A3803B6ADE
:1010D800BA69A3EB0901FB687869C91ABB68C91A20
:1010E8007B6A98470028C0F297804FF0000BA8440D
:1010F80008EB000507F1300AB34560DB0021BA6947
:1011080008467B6A9847E2E64FF0000807F130008E
:1011180093E74E46C84694E7B04692E71AF8021B92
:101128003E4A1AF8015C54F82530934202D33C4AEF
:1011380093421CD33B6923B1F86905F0D9FA00281A
:101148008AD17B68F3B908F1280207F12800024424
:1011580008F1010302F8101C07F1500208F1020817
:1011680052FA83F35FFA88F803F8105C74E73B6976
:101178002BB1F86905F0BCFA00287FF46DAF1BF0BD
:10118800010F09D006F1280207F12801731C56182F
:1011980006F8205CDEB25FE71BF0040F3FF45CAF9B
:1011A80008F1280207F1280108F1010302EB010800
:1011B80008F8105C5FFA83F84EE7002065E71BF833
:1011C8000A3054F8239087F82F30FB6FFBB133F8BF
:1011D8001B800121BA697B6A07F12F009847002814
:1011E8001ADB0544B8F1000F06D1484605F0F2FEB7
:1011F80000F101081FFA88F841464846BA697B6A37
:101208009847002808DB05440BF1010B74E7D7F871
:101218007C80DEE745465AE6054658E698790000A0
:10122800D48800008180000004000001A47C000034
:10123800014B1B68184700BF00000020014B1860D5
:10124800704700BF0000002007B50B46002102468A
:101258000091034800F02AF903B05DF804FB00BFD1
:101268003912000030B5002587B0CDE903010446E6
:10127800009503A90548059500F018F9DDE9043043
:101288009842B8BF255407B030BD00BF476700007B
:101298002DE9F047058B04462807904611D402290A
:1012A80005F0070540F0CD80204605F07FFA78B1BB
:1012B8000138218B042811D8DFE800F0C3106D85B0
:1012C800950001290CBF45F0100545F02005258340
:1012D80088F31188BFF36F8FBDE8F08701F0070A24
:1012E800AA4500F0A6800027B9463E46A368002B11
:1012F80000F0BD8041F00801218388F31188BFF315
:101308006F8FA168002900F0BB800D68002900F0EC
:10131800B780334652462046D1F80480C047002D96
:1013280076D02B6829461D46F0E701F007035A1FBF
:10133800012A1BD8002221F00701062B276889B251
:10134800C4E9002209D13B4603E0628B0132628383
:101358001B68002BF9D141F002012046218305F0DA
:1013680025FA00287BD041F0200177E0042B0AD130
:1013780021F0070189B22046218305F017FA10B140
:1013880041F020012183218B01F0070AAA4550D0A2
:101398000027B946AAE7236921F0070141F00601B1
:1013A800062DD3F8009021832DD1B9F1000F40D03C
:1013B80041F00801218388F31188BFF36F8F20461D
:1013C8003949C84729E021F00701236941F00401A0
:1013D80089B2042DD3F804902183E6D000274FF07A
:1013E800040A3E4682E721F00701236941F005011E
:1013F80089B2052DD3F808902183D6D000274FF065
:10140800050A3E4672E700274FF0060A3E466DE79A
:101418002B4687E7B9F1000FD1D14FF02003EFF346
:10142800118883F31288BFF36F8F238B23F008038F
:101438002383258BEA062ED525F01003238305F098
:1014480007056669218B002EBFF66FAF002327685A
:10145800C4E9003321F0070141F001012183218B08
:101468004FF0000901F0070AAA457FF43FAF002FAB
:101478009BD041F00801218388F31188BFF36F8F57
:10148800002FC7D03D68394633465246204605F0FE
:10149800B9F92F46F4E7AB067FF51AAF25F020031C
:1014A800238305F00705FFE6396800002DE9F04FB2
:1014B80081468B4617461C46002595B0387808B9F2
:1014C800284657E37B1C2528039306D05946C8476E
:1014D8000028C0F24F830135FBE1182200210EA835
:1014E80005F093FD7B78252B7DD0002398469E46FA
:1014F8009C461E46781C014610F8012B2B2A00F04A
:10150800A18000F29880202A00F09F80232A00F012
:101518009F802BB19DF8403043F040038DF8403058
:10152800B8F1000F05D09DF8403043F020038DF846
:101538004030BEF1000F05D09DF8403043F0100355
:101548008DF84030BCF1000F05D09DF8403043F0D5
:1015580008038DF840302EB19DF8403043F0040365
:101568008DF840309DF8403003F04400442803D102
:101578006FF386138DF840309DF840302A2A43F0E7
:1015880080038DF840307FD19DF841204B1C42F0FC
:1015980001028DF841201A782E2A0CBF0121002162
:1015A8009DF8412061F341028DF8412078D15A78A5
:1015B8002A2A6ED000224FF00A0C0133194611F87E
:1015C800010BA0F13006092E40F295809DF84010DD
:1015D8001292C1F3400040EAD2700A4660F3410219
:1015E8008DF840205CE0BA1C03928DF843309DF8DA
:1015F8004130DA0740F12E8154F8048BB8F1000F1E
:1016080007DA9DF84020C8F1000842F004028DF87E
:1016180040205E0740F1278154F804ABBAF1000F6F
:1016280080F226819DF841306FF341038DF84130F7
:101638004FF0FF3A1CE12D2A0DD0302A7FF469AF14
:10164800012358E74FF0010C55E74FF0010E52E720
:101658004FF001084FE701264DE703460EFB0262F3
:10166800303A184610F8016BA6F1300CBCF1090F9E
:10167800F3D999428FD09DF840101192D20F62F39E
:1016880041018DF8401086E70B4600224FF00A0E04
:10169800E7E79DF84120023342F004028DF841202B
:1016A8001A786C2A47D02BD8682A31D06A2A4BD0AE
:1016B8004C2A51D01A4612F8013B782B03928DF828
:1016C80043309DF8412000F2BE806D2B51D8692B24
:1016D80000F2B980572B67D8412B03D0453B022B2A
:1016E80000F2B18004229DF8423062F302038DF8C3
:1016F8004230012373E00CFB02020B46303A5DE7EF
:10170800742A25D07A2AD5D106219DF841200CE0EB
:101718005A78682A9DF8412006D1012161F3C60252
:101728008DF841200233C5E7022161F3C6028DF826
:1017380041200133BEE75A786C2A9DF8412001D137
:101748000421EBE70321F0E705219DF84120ECE7B0
:1017580007219DF84120E8E7BDF8402022F4F04237
:1017680022F0020242F4804242F00202ADF8402028
:10177800DFE76E3BD9B201238B4040F282410B4236
:1017880037D113F0240F51D1D8075CD503219DF828
:10179800423061F302038DF8423002F07803A3F17E
:1017A80040014B424B411AE00120A3F15801C9B254
:1017B80000FA01F111F4624F94D140F6010631426A
:1017C8001DD111F4043F3ED09DF8423060F302036E
:1017D80002F07802402A8DF8423034D000239DF878
:1017E8004020C2F340010B4363F341028DF84020CF
:1017F800FDE602219DF8423061F30203E8E702208A
:101808009DF8421002F0780260F30201402A8DF838
:10181800421002BF9DF8401041F001018DF84010C0
:10182800632BDBD1131E18BF0123D8E703219DF8D2
:10183800423012F0780F61F302038DF8423014BF82
:1018480001230023CBE79DF8403043F001038DF8D6
:101858004030C3E79DF94020002AACBF4FF0FF3865
:10186800DDF84480D5E698077FF5E2AEDDF848A0BC
:101878000023CDE911339DF842309DF8411003F063
:101888000703012BC1F3C30133D1CB1E042B04D8AA
:10189800DFE803F0214646212100236801294FEAA9
:1018A800E372CDE90E321CD19DF93830DA17CDE953
:1018B8000E3204349DF8403013F0030650D03A46F7
:1018C80059464846039B05F090F80028C0F252811B
:1018D8000544039FF2E554F8043BDA17CDE90E32CC
:1018E800E8E70229E5D11AB243F3C033CDE90E2364
:1018F800DFE7022B24D1CB1E042B04D8DFE803F04A
:1019080018101018180001294FF0000254F8043B71
:1019180014D00229CDE90E32CCD19BB20E93C9E77F
:10192800073424F00704F4E80223CDE90E23C1E7C5
:1019380054F8043B0E9300230F93BBE7DBB2CDE7CB
:10194800042B08D1073424F00704D4E90023083411
:10195800CDE90E23AEE7032BACD154F8043BDDE709
:101968009DF843007828B4D862281CD825283FF46D
:10197800ADAD5828ADD1DDE90E010DF13603009368
:1019880010AA08AB04F0EBFFBAF1000F074680F28B
:101998009980002F9DD00DF13603D81B002E00F042
:1019A800C0800130BDE06338152892D801A252F8F2
:1019B80020F000BF911A0000A31A0000DB180000F5
:1019C800DB180000DB180000DB180000A31A000079
:1019D800DB180000DB180000DB180000DB18000033
:1019E8002F1B0000C71A0000ED1A0000DB180000CA
:1019F800DB180000151A0000DB180000C71A0000E9
:101A0800DB180000DB180000C71A0000BAF1000F4D
:101A18000E9F35DB5146384605F0E3FA07EB000A1E
:101A2800002F3FF456AF00269DF8423013F0100205
:101A3800059200F0928002305B06119A48BF129B13
:101A4800104448BFC018B8F1000F049240F39F80BB
:101A58009DF84020A8EB0008C2F3800350070693C6
:101A680000F19580510640F188803EB159463046D4
:101A7800C84700287EDB069B01351E4630227DE0E4
:101A8800384605F0A7FAC9E70E9B002601208DF815
:101A9800203008AF0DF1210AC6E719075ABFC3F372
:101AA80000135E012B26DDE90E23002BBFF663AF82
:101AB800524263EB43032D26CDE90E235BE7002654
:101AC80059E700269DF840200DF13603DB1B6FF324
:101AD80086129A458DF840207FF65BAFAAEB030388
:101AE800119356E70E9890B30DF136030093002139
:101AF80008AB10AA04F033FFBDF84230BAF1000F6A
:101B080003F0EF0343F4F04343F010030746ADF846
:101B18004230D6DA00283FF4DCAE00260DF1360359
:101B2800181A9A4680E70E9B07293FF6D2AEDFE8DF
:101B380001F00C04060C08080C0C1D70C9E61D8089
:101B4800C7E6EA17C3E90052C3E61D60C1E62F4F96
:101B5800064607F1050A052066E71A0748BF01305F
:101B68006AE71046079306925946C847DDE90623F7
:101B7800002804DA15B0BDE8F08F20224346194644
:101B8800002903F1FF33ECDC454498466D1A2EB169
:101B980059463046C8470028ECDB01359DF84230ED
:101BA800DA0601D41B0705D559463020C847002856
:101BB800E0DB0135059B33B159469DF84300C84722
:101BC8000028D7DB0135049E2E4405E05946302015
:101BD800C8470028CEDB0135731B002BF6DC5346C3
:101BE8003A465946484604F000FF0028C2DB05443F
:101BF800A844A8EB0503002B7FF76BAE59462020BD
:101C0800C8470028B6DB0135F3E700BF358100007F
:101C180008B54FF02002EFF3118382F31288BFF367
:101C28006F8F01F0EDFB034804F09CFD00F048FFC6
:101C3800FCE700BF3B8100004FF02002EFF3118367
:101C480082F31288BFF36F8F0121044AC2F840154E
:101C580083F31188BFF36F8F002070470090035003
:101C680020B1034B800143F001031847704700BFC0
:101C7800207D0000062807D10122044BC3F8002567
:101C8800BFF34F8F20BFFDE7704700BF00400050F3
:101C980002F0ACBD2DE9F047044607464FF00109B4
:101CA800DFF8508014B93846BDE8F08794FAA4F5F7
:101CB800B5FA85F509FA05F32E0108EB05156FEA63
:101CC800030A24EA03042B7B002BEBD058F80630D8
:101CD8001B694BB94644736804222846196807EA09
:101CE8000A0700F049FADDE7284698470028D9D1C5
:101CF800F0E700BF047D000030B5002289B00F492D
:101D08000F4805F018FE002200230024CDE9062321
:101D18000E230C4DCDE903344FF440722846CDE92B
:101D28000144094B0949009403F0BCFB08492846C3
:101D380005F0C9FC204609B030BD00BF5D1D00009C
:101D4800A8060020200200202D20000040100020BE
:101D580068810000014803F0FFBC00BF0C020020AE
:101D68002DE9F04780461F480F4605F06BF80646F8
:101D7800002830D000252846BDE8F087237B73B1C2
:101D88002368DB680BB12046984723681B69D3B9E1
:101D9800636804222046196800F0EEF90136103411
:101DA8004C45EBD3B8F1000FE5D0002DE2D0284622
:101DB800FFF770FF0546002FF7D000214FF4A470FD
:101DC80003F0DAFFF1E7204698470028E0D00AFA46
:101DD80006F31D43E2E705464FF0010A024CDFF81F
:101DE8000C90DDE724080020047D0000147D00002D
:101DF800014B53F8200070473C7D000008B50346AE
:101E080008462BB1044A136000F0F2FB002008BD1D
:101E18006FF01500FBE700BF0400002010B5044C6C
:101E2800237813B9034803F097FC0123237010BDEE
:101E3800341000200C02002010B50446064805F0B6
:101E480001F83CB1054BD3E8EF1F0139C3E8E21FA5
:101E5800002AF8D110BD00BF1C080020200800206F
:101E680000200146034BD3E8EF0FC3E8E21F002A26
:101E7800F9D170471C08002070B5FFF7F1FF05463F
:101E8800074C084EB44200D370BD63685B792BB130
:101E980023685B6813B12946204698471034F1E758
:101EA800047D0000147D000010B5044C0449204650
:101EB80004F05FFE034B1C6010BD00BF80010020D2
:101EC800287D00001408002008B50023064A4FF4B6
:101ED80000411370054A06481360FFF78FFFBDE8FD
:101EE8000840FFF7E1BF00BF351000201C080020A4
:101EF800496E0000014600220023014804F05ABE42
:101F080080010020014804F0F3BE00BF80010020DA
:101F1800024B0146186804F03BBF00BF14080020BC
:101F2800014804F069BF00BF8001002070B5264B4E
:101F38001878002847D0FFF7E5FF054670B1234B16
:101F4800D3E8EF1F0139C3E8E21F002AF8D1204C7B
:101F5800204EB4422DD32846FFF7DAFF1E4B1F4C04
:101F68001B68002B19DD05F0E0FC4FF47A72A0FB2A
:101F7800020302FB0131C30B43EA4143D4E90020C9
:101F88009B1A40F2E9324FEAD13161EB00019342EA
:101F980071F1000101D3FFF76FFFD4E9003213F5A7
:101FA8007A7342F10002C4E90032BDE87040FFF7DD
:101FB800B7BF63685B7923B12368294620461B684D
:101FC80098471034C5E770BD341000202008002061
:101FD800047D0000147D00001C080020A0060020DD
:101FE80070B50D4D297861B90120FFF7B9FE0B4C8A
:101FF8000B4EB44206D3FFF799FF0028FBD101230B
:102008002B7070BD63685B791BB1236820469B68A1
:1020180098471034EDE700BF35100020047D00001C
:10202800147D000000212DE9F0470846FFF798FECF
:10203800044648B340F267684FF0000903F0B6FE63
:102048001A4B186030B11A4B1B68092B02DD19486E
:1020580003F082FB0025184FDFF858A044B1204652
:10206800FFF718FE044618B94FF0FF384FF0FF3954
:10207800FFF75CFF064628B9B5B942464B465046BD
:1020880003F08AFB3546E9E74FF0FF384FF0FF3998
:10209800D4E72B689B691BB1002228461146984754
:1020A8001035BD42F5D3E8E7044DFAE718080020DB
:1020B800200800200C020020147D0000047D000090
:1020C80013B5184804F0BEFE174B1B787BB14FF0D0
:1020D8002003EFF3118483F31288BFF36F8FFFF7A8
:1020E80025FF84F31188BFF36F8F02B010BD0F4B2B
:1020F8001B68002BF9D050B9002200230C48CDE909
:1021080000234FF40042002304F07CF8EDE70A288E
:10211800EBD1074805F01BFC064802B0BDE81040AB
:1021280003F01ABB200800203510002018080020F2
:10213800A80600200C02002010B5064B04461B68B8
:1021480098472146A060044804F0B2FDBDE810405D
:10215800FFF7B6BF0400002080010020044A054BA9
:102168009B1AB1EBD30F34BF52F8310000207047EF
:102178009C7C0000047D0000084B10B4C31A44681E
:102188001B110133237143689A7101224368196056
:1021980043685A7110BCFFF741BE00BF047D0000C0
:1021A8002DE9F04FC1F3CB448FB0C1F349260D465A
:1021B8009046994605901734002E3CD04FF0040BFA
:1021C8004FF00A0A002209AF31460BAB4046CDF862
:1021D80008B00197CDF800A0CDE90B220D92079623
:1021E800FEF748FEC0F30903181920F0070080081D
:1021F8001E4663F352250693FFF77CFE044678B12A
:102208000022069B10300B900C930D924046CDE9AE
:10221800017B0C4A0799CDF800A00BABFEF72AFE0C
:1022280066F352254B462A46204605990FB0BDE86D
:10223800F04F04F02BBE24F007008008FFF75AFE89
:102248000446EDE7696E00000EB403B503AB53F81E
:10225800042B01460448019304F03FFE02B05DF8E8
:1022680004EB03B0704700BF0B6F0000CA0605D42B
:102278008B064CBF02490349FFF7E6BF704700BF12
:102288007E8100007D8100002DE9F04F89B09B46DA
:10229800DDE915769DF8483004460493DDE913938B
:1022A8000593049B0D460692002B00F0878006F0EC
:1022B8000803079304F0D2FD06F0020A024600283C
:1022C8004BD020468549FFF7BFFF8046BAF1000F83
:1022D80008D016F0440F42D12A4620468049FFF71D
:1022E800B3FF804406F001035BB17E4B049A20469D
:1022F80053F822207C4B7D49002A08BF1A46FFF775
:10230800A3FF06F00803002B55D0794B049A20460A
:1023180053F822207749FFF797FF0546069B2BB114
:102328001A4620467449FFF78FFF0544BBF1000F9A
:1023380005D05A4620467149FFF786FF05444544B3
:10234800B9F1000F49D1002F4FD1F30700F1C08038
:1023580031462046FFF78AFFB4E08046B6E7684B6F
:1023680018680028BDD0674B4FF47A7E1B684FF47D
:102378006162B5FBF3F5B5FBF0F300FB13550EFBFB
:1023880005F5B3FBF2FAB5FBF0FC3C2102FB1A326F
:1023980000FB1C55B2FBF1F30EFB05F5B5FBF0F5A0
:1023A80001FB132220460092CDE901C55246564949
:1023B800FFF74AFF95E706F00805AFE7BBF1010F05
:1023C80006D1B9F1000F64D1002F7BD000250CE0B5
:1023D800B9F1000FF8D04D485CE04D484B46224615
:1023E8004C4904F054F9002F68D0DFF82C91DFF83D
:1023F8002CA1102F31462046B8464FF0000B28BFBD
:102408004FF01008FFF732FF5D4545DC059B51464C
:1024180020461A78FFF718FF4FF0010B1BF0070F43
:1024280003D149462046FFF70FFFD8453BD9059B06
:102438005146204613F80B20FFF706FF0BF1010B5E
:10244800BBF1100FEAD14FF0000B20463449FFF7DB
:10245800FBFE5A46059B20469A5CA2F120015F29A3
:1024680028BF2E222F49FFF7EFFE0BF1010BBBF11E
:10247800100F1DD01BF0070F03D149462046FFF768
:10248800E3FED8455A46E5D849462046FFF7DCFE24
:10249800EBE71F48049DA1E749462046FFF7D4FE15
:1024A8000BF1010BB0E720461F49FFF7CDFEC5E74A
:1024B800059BB7EB0807434405939AD1049B002B6F
:1024C8007FF443AF204609B0BDE8F04F04F00CBDDF
:1024D8002046054A0549FFF7B7FE39E78581000020
:1024E800898100004C7D0000808100002080000070
:1024F800607D0000AE810000B4810000B88100005A
:102508002C0800202808002092810000396F000064
:102518000B6F0000E36E0000C5810000BD81000064
:10252800C7810000C9810000C38100002DE9F04186
:102538000F884B6805460C4690468E6886B0C7F3F0
:1025480082175BB1134A9B1A43F3CF0100291FDBA3
:102558002078C0F3C200FFF701FE0346214651F878
:10256800102B6088C2F34922002A01EB020408BF3D
:102578000021C0F3CB00CDE90308CDE90114002206
:10258800314628460097FFF77FFE06B0BDE8F08188
:102598000023E3E79C7C000042F20F7373B58B4283
:1025A80028BF0B4605680446052168460D4A04F015
:1025B800E6F80646636828460B225B680A4904F079
:1025C8007FFC63683246694628465B6804F078FCFD
:1025D80063681B2228465B68044904F071FC02B05A
:1025E80070BD00BFF17F0000E8810000CC810000D1
:1025F80000210123064A904206D8064A01B9012360
:102608001360054B18607047012140085B00F2E732
:1026180040420F00280800202C080020014B002011
:1026280019607047440800200122024B02481A70C2
:1026380004F05ABC37100020907D00000148FFF7D5
:10264800ABBF00BF907D000010B5064B0C46186864
:10265800FFF7CEFB2146BDE8104003460F22024893
:10266800184700BF44080020907D0000F8B50D46CB
:102678000446064F4618B44201D12846F8BD14F85E
:10268800011BBB6801485B689847F4E7407A000083
:102698002DE9F84305464FF02003EFF3118683F345
:1026A8001288BFF36F8F4FF00C090D4B0D4F1C684C
:1026B800DFF834802CB986F31188BFF36F8FBDE83B
:1026C800F883D4E90123002D18BF13462BB198F8DD
:1026D800142009FB02F2B85C98472468EAE700BFB7
:1026E8006008002054080020240E0020012270B544
:1026F800164B1C7D04F01F039A40D043144B61090C
:1027080003EB8103D3E8EF1F01EA0005C3E8E65FA6
:10271800002EF7D10A4213D00E4B0F4D8BB10C236C
:102728006343EA185178E85C04F071FB0020FFF776
:10273800AFFF0C235C4300232A192B51C2E9013354
:1027480070BD83F31188BFF36F8FEFE7240E00206D
:1027580068080020176E0000540800202DE9F04199
:10276800324B07461D7D4FF02003EFF3118883F3AA
:102778001288BFF36F8F0C246C432D4B2D4E195DBF
:102788001A19002947D007CA06EB040C8CE8070081
:1027980000221A5588F31188BFF36F8F0C236B43FF
:1027A800F05CF218A8B37B1C10D04FF40040002155
:1027B800D2F808C0204C0023ECFB00411F4A2046F9
:1027C800FEF7B4F80121381A05F08FF803F016FA6D
:1027D8000120FFF75DFF1A4B6A0903EB8203012210
:1027E80005F01F018A40D3E8EF0F1043C3E8E10F5B
:1027F8000029F8D1134B3BB10C2303FB05F0331828
:102808005978305CFFF736FAFFF770FF03F00AFAE1
:102818000120BDE8F0810146284600F015F800289F
:10282800B8D007C8344484E80700B3E7240E002072
:1028380048080020540800203F420F0040420F0083
:10284800680800207D1C00002DE9F04F85B00E4679
:1028580003A900F043F84FF4004704464FF0000B7B
:102868001B4B039DD3F800A0431E1BB203EB43038D
:10287800DFF8608005EB830524B9A146484605B01A
:10288800BDE8F08FC446594668680023E0FB07C1DD
:10289800114A6046FEF74AF8C44659460190A868AE
:1028A8000023E0FB07C10C4A6046FEF73FF8BAF187
:1028B800FF3FA94601D0824505D9731CDED0019B94
:1028C8001844B042DAD9013CA4B20C3DD4E700BFA9
:1028D800080000203F420F0040420F0008B9024B99
:1028E8000B600020704700BFA07D0000014803F086
:1028F80023BD00BFA07D000038B5044618B90F4BB2
:102908000F485B6898476168B1F5683F0FD0B1F52B
:10291800680F0CD00B4DA94209D011F4686107D09B
:102928002146094804F0A0FE00232360656038BDF5
:102938001422206804F069FBF8E700BF14010020A6
:10294800318200002C5F5CA96C0D002008B500B333
:102958004368B3F5683F0CD101220368D3E8EF1F41
:10296800002903D1C3E8E02F0028F7D10DD10020BA
:1029780008BD094A93420AD000684FF0FF324FF071
:10298800FF3302F033FE0028F1D00448F0E7044892
:10299800EEE76FF4E040EBE72C5F5CA9E98FFFFFFF
:1029A800EA8FFFFF08B5B8B14368B3F5683F0CD1AB
:1029B80000220368D3E8EF1F012903D1C3E8E02F01
:1029C8000028F7D10BD1002008BD074A934208D050
:1029D800006802F085FEF6E76FF4E040F4E703488C
:1029E800F2E70348F0E700BF2C5F5CA9E98FFFFF1F
:1029F800EA8FFFFF10B5044618B91D4B1D485B68E8
:102A080098476368B3F5683F2FD0B3F5680F2CD0AB
:102A1800194A934219D1236803BB4FF0FF324FF094
:102A2800FF332146154802F0DFFC08B923681BB9BB
:102A38000F4B13485B68984714220021206804F064
:102A4800E4FA4FF46863636008E0B3F5683F0DD8B3
:102A58003A2B03D040F6BA629342DED1206804F0E4
:102A680046FE636843F03A03636010BD054AF3E726
:102A780014010020318200002C5F5CA96C0D00203D
:102A8800578200003A00003A08B50649402314224C
:102A9800054804F0DBFDBDE808400449044803F09C
:102AA800BDBC00BF6C0800206C0D0020A87D000094
:102AB800BC7D0000014910220A60704710ED00E05B
:102AC80072B6404080F31188BFF36F8FBFF34F8F0A
:102AD80030BF62B6BFF36F8F704700BF72B6494010
:102AE80081F3118820BF80F3118862B6704700BF58
:102AF8002DE9F04781460C4600AF00294CD0D1E9BA
:102B080000126E468AB0A3686D464FF0050AA846C3
:102B18002548C5E90723C5E9050148F810AF002392
:102B280042464FF421512148FFF73AFBD4E90312FA
:102B3800B5466369AD461E48C5E90723C5E90501E1
:102B4800C5F810A0002342464FF421511748FFF75B
:102B580027FBB54688B0E3696D464FF0030AA846DF
:102B6800144AC5E9052348F810AF002342464FF43C
:102B7800C2510E48FFF714FBB546A369AD460E4A8D
:102B8800C5F810A0C5E90523002342464FF4C251F9
:102B98000648FFF705FBB5462146484602F0A8FA65
:102BA800BD46BDE8F08700BF84820000E47C0000D9
:102BB800B3820000E2820000F182000040B20028E7
:102BC80007DB01234109034A00F01F00834042F854
:102BD8002130704700E100E0054B420953F82220FC
:102BE800012300F01F0003FA00F01040704700BFF7
:102BF80000E100E040B2002801F10101ACBF00F1A2
:102C08006040064B4FEA4111C9B2ABBF00F56140C5
:102C180000F00F0080F800131954704714ED00E01D
:102C280030BFFFF7FDBF00BF0B4A08B50B4B22F0C2
:102C38007F029A60BFF34F8FBFF36F8FD3F888205E
:102C480022F47002C3F8882002F00CFB03F014F998
:102C580000F09AFB02F046FB0000000000ED00E0E7
:102C6800094A0A49936809685867996708494B6887
:102C780043F080534B60002383F31188BFF36F8FB9
:102C88009368986F704700BF240E0020207F0000D3
:102C980000ED00E013498A684FF030001044EFF36C
:102CA800098C80E8F01F202080F31288BFF36F8F13
:102CB8000D4F4FF00066CA698A603E60506F00236E
:102CC800536780F3118802F1300090E8F01F8CF30D
:102CD800098802F1000004B504F04CF9BDE804408D
:102CE80070470000240E002004ED00E01EF0040FE1
:102CF8000CBFEFF30880EFF30980816911F8021C1B
:102D08000229FFD001B504F026F901BD42F8203CA4
:102D1800009B0B4942F81C3C019B21F0010142F841
:102D2800183C029B42F8081C42F8143C4FF0807390
:102D380042F8043C0023203A02654367704700BF0D
:102D4800A1670000084B9860436E83F30B88104618
:102D580081F30988002163B681F31188BFF36F8F6F
:102D68000022002303F018FD240E002001B572B6DE
:102D78000B4A906900281EBF0021916104F0A8FC4D
:102D880062B6EFF30580A0F110004FEAC0000549D4
:102D9800014409C99847BDE80140034908470000B4
:102DA800240E0020707A0000B52D0000044B9968AD
:102DB800D869884203D003494FF080520A607047AF
:102DC800240E002004ED00E02DE9F04186B006460F
:102DD8000D4600AF0224414B4FF482517B614048BD
:102DE8003C6107F1100204F0C9F83E4B9B6ADB0610
:102DF80009D53D4B4FF48251C7E90443384807F1E0
:102E0800100204F0BBF8374B9B6A18070AD5374BFA
:102E18004FF482517B61022331483B6107F1100274
:102E280004F0ACF82F4CA36A990722D5E846304B3A
:102E380007F110027B6102234FF482513B6128485D
:102E480004F09CF8636BA26A120612D588B06A4631
:102E580028492348C2E9051303234FF4C25142F815
:102E6800103F04F08BF8C5461EB1A36A23F0800317
:102E7800A3621C4B9B6ADC070AD51F4B4FF4825197
:102E88007B61022316483B6107F1100204F076F8D3
:102E9800144B9B6A98060AD5184B4FF482517B61F4
:102EA80002230F483B6107F1100204F067F8002085
:102EB8000C4B18379A6AD10658BF9A6A9A6A9206D2
:102EC80042BF5A6A22F400525A629A6A42F0FF02DA
:102ED8009A622870BD46BDE8F08100BF1F830000DC
:102EE800E47C000000ED00E035830000688300000A
:102EF8007B83000093830000A9830000C88300003F
:102F08002DE9F04186B006460D4600AF02243E4B3F
:102F18004FF482517B613D483C6107F1100204F097
:102F28002DF83B4B9B6AD90409D53A4B4FF4825193
:102F3800C7E90443354807F1100204F01FF8344B81
:102F48009B6A1A050AD5344B4FF482517B610223E0
:102F58002E483B6107F1100204F010F82C4CA36ACC
:102F68009B0522D5E8462D4B28487B61022307F1B3
:102F780010023B614FF4825104F000F8A36BA26A7F
:102F8800100412D588B06A4625492048C2E90513BD
:102F980003234FF4C25142F8103F03F0EFFFC54638
:102FA8001EB1A36A23F40043A362194B9B6A590517
:102FB8000AD51C4B4FF482517B61022313483B61B5
:102FC80007F1100203F0DAFF114B9A6AD20515D502
:102FD800154B7B6102234FF482510C483B6107F18A
:102FE800100203F0CBFF0020094A1837936A43F414
:102FF8007F4393622870BD46BDE8F0819B6A9B04BD
:10300800F1D50A4BE5E700BFF7830000E47C000038
:1030180000ED00E00D840000688300001E840000BD
:10302800378400004C84000067840000C8830000D7
:1030380010B586B002243A4B4FF48251394804AA9D
:103048000593049403F09AFF374B9B6A9B0108D5BC
:10305800364B4FF48251334804AACDE9044303F0B8
:103068008DFF314B9B6ADC0109D5314B4FF48251FE
:10307800059302232B4804AA049303F07FFF2A4BED
:103088009C6A14F4801409D002242A4B4FF482510C
:10309800244804AA0593049403F070FF224B9B6A0A
:1030A800180309D5244B4FF48251059302231D4878
:1030B80004AA049303F062FF1B4B9B6A590309D5CA
:1030C8001E4B4FF4825105930223164804AA049319
:1030D80003F054FF144B9B6A9A0309D5184B4FF41D
:1030E8008251059302230F4804AA049303F046FF74
:1030F8000D4B9B6ADB0309D5124B4FF482510593A4
:103108000223084804AA049303F038FF064A20461D
:10311800936A6FEA03436FEA1343936206B010BDE4
:103128007F840000E47C000000ED00E0978400004C
:10313800AA840000C4840000EE8400000C8500000E
:10314800318500004B8500002DE9F0438BB0764BAC
:103158000546D3F80480002600AFC8F3080486F3B8
:103168001188BFF36F8F02F07F43B3F17F4F0ED109
:1031780002F00C03082B19D16C4B4FF48251FB6100
:1031880002236B48BB6107F1180203F0F7FE002623
:1031980035460023FB71E31E092B00F2A580DFE80A
:1031A80003F00A989B94A3A3A3A3A39E10074CBF64
:1031B8000D460126EDE7E9464FF002085D4B07F1A1
:1031C8001802FB614FF482515948C7F8188003F080
:1031D800D5FE0023544CFB71E36A9A070BD5564B76
:1031E800C7E906834FF48251514807F1180203F0EA
:1031F800C5FE002440E0E36A002B01DA4F4BEFE7FD
:10320800E36A5B00F5D54E4B07F11802C7E9068360
:103218004FF48251464803F0B1FE6369AA6943F44A
:1032280080736361BFF34F8FBFF36F8F636932F8A9
:10323800022C23F480736361BFF34F8FBFF36F8F4A
:103248004DF602739A4207D0A36ADBB283B301201A
:10325800F91DFFF7B9FD3AE088B02B686A4639498D
:103268003348C2E9051303234FF4C25142F8103F13
:1032780003F084FECD462C68FB79ABB920222946A1
:1032880007F1080003F0B6FE7B6A002E47D0C3F3AF
:10329800080222B96FEA53236FEA43237B62204670
:1032A80007F10801FFF724FC2C37BD46BDE8F08381
:1032B800A36A13F47F4F04D00120F91DFFF720FE05
:1032C80005E0A36AB3F5803F93D3FFF7B1FE044648
:1032D800D2E70020F91DBCE70020F91DEEE71A4BE4
:1032E800FB610223BB617DE7184A18F4F87FE846C2
:1032F8008AB0174B18BF13466A461649103CC2E9F4
:1033080005134FF400731384134BD4614FF4115118
:10331800074842F8103F03F031FEC54669E723F439
:10332800FF7323F00103B9E700ED00E0A485000076
:10333800E47C0000CF850000E685000007860000D9
:103348001586000034860000508600008B8500003A
:10335800768500007486000004000001044B5A6959
:1033680042F010025A615A6942F480625A61704709
:1033780000ED00E0EFF30880EFF3098101B5724634
:10338800FFF7E2FE01BD00BF002320210348C21859
:103398000133412B82F80013F9D1704700E100E0B6
:1033A800002080F31488BFF36F8F002080F30A8811
:1033B80080F30B88FEF76CFC00200E490860BFF311
:1033C8004F8F0D4880F3088800F03EF8202080F3E6
:1033D80011880A484FF40061401880F30988EFF318
:1033E80014800221084380F31488BFF36F8FFFF71E
:1033F8001BFC000094ED00E080200020401300201A
:10340800BFF34F8F0549064BCA6802F4E0621343C5
:10341800CB60BFF34F8F00BFFDE700BF00ED00E0BA
:103428000400FA05002318460649D1F89020C2F393
:103438000722934200DB7047C1F89830C1F8A0001A
:103448000133F6E700ED00E010B572B6002484F30E
:103458001388FFF7E7FF23464FF0FF300C4A03F1CC
:1034680020010133102B42F82100F8D100234FF03E
:10347800FF30074A03F160010133102B42F82100A5
:10348800F8D162B6BFF34F8FBFF36F8F10BD00BF87
:1034980000E100E0084B9B6883420BD1EFF3058302
:1034A80043B1064B5A6842F080525A605A6A22F475
:1034B80000425A6202F080BC240E002000ED00E0B9
:1034C8001FB5094C094A23460121094800F02AF989
:1034D80000230393074B0121E41A01A801930294E6
:1034E80000F02AF904B010BD00600120000000209F
:1034F800CC7D00002002002010B50C7A0B6804F087
:103508001F0223F01F031A43CB68640923F01F032B
:10351800054943EA440343F00103C1F89800C1F8A0
:103528009C20C1F8A03010BD00ED00E080B500AFD0
:1035380088B06A46074BC2E90530032342F8103FBA
:1035480000234FF4C2510448FEF72AFE6FF015001D
:10355800BD4680BD8B860000DC7C00002DE9F04F65
:10356800144606464FF0000987B05F4D00AF7960FA
:103578007B68994535DAD6F80480B8F1000F54D045
:10358800B8F11F0F1BD918F01F0F18D1D6F800B0CB
:103598001BF01F0F13D1584603F0F3FC824608EBCB
:1035A8000B00013803F0EDFC82451FD06FF0150ABF
:1035B8006C4688B06A464D49C2E9051A05E06C4672
:1035C80088B06A464A4BC2E90539032342F8103FDE
:1035D80000234FF4C2514748FEF7E2FDA5466FF0BD
:1035E800150420461C37BD46BDE8F08F1AF1160FAA
:1035F800DED05445DCDDC5F898A0D5F89C00C5F8A8
:1036080098A0D5F8A02020F01F0042F01F08D6E9A6
:1036180000211144904201F1FF3B1ED1D84508D149
:1036280031465FFA8AF003F0B5FC09F101090C365E
:103638009EE7C5F898A0D5F89C3021F01F0103F04B
:103648001F030B433146C5F89C30E0B203F0A2FCDF
:1036580010F1160FC3D0441CE7E7013AD845E0B291
:1036680022F01F02C5F898A008D1D5F8A03031463D
:1036780003F01F031343C5F8A030E7E7D5F8A010FF
:1036880001F01F010A43C5F8A020314603F082FC6F
:1036980010F1160FA3D0C5F898A0D5F89C203B7C54
:1036A80008F1FF3862F304033B74D5F8A0303A7C84
:1036B8005B0863F347123A74D6E900321344BB60DF
:1036C80023F01F03441C4344A3EB0B03E0B223F095
:1036D8001F030F287B6102D9FFF728FFB8E707F11E
:1036E8000801FFF709FFB6E700ED00E0D486000007
:1036F800B1860000DC7C00000522044BC3F894204E
:10370800BFF34F8FBFF36F8F704700BF00ED00E02E
:10371800BFF35F8F0022024BC3F89420704700BFAD
:1037280000ED00E010B5034C2278FFF717FF20707A
:1037380010BD00BF381000202DE9F74F294D8A46EB
:1037480006464FF00008AB46274FD0451BDAD6F89F
:103758000490B9F1000F3FD031680846019103F099
:1037680010FC0199044609EB0100013803F009FC3B
:1037780084424FF014021D4B08D002FB08F36FF08F
:1037880015024BF8032003B0BDE8F08F14F1160FB3
:103798002C60F8D01978A142F5DD02FB08B0C7F813
:1037A8009840C7F89840D7F89C4000F10801007B82
:1037B80064F304000871D7F8A0000C79400860F39E
:1037C80047140C71D7F89C1021F01F016960D7F8D5
:1037D800A01021F01F01296108F1010814350C36E9
:1037E800B3E700BF880D002000ED00E0381000208E
:1037F80038B50E4D2C68102C15D80020FFF788FF1F
:103808000B4B0C4AC3F8C020844205D10A4B002058
:103818001C70FFF771FF38BD696801EB0011FFF7F5
:103828006BFE0130F0E74FF0FF30F4E7D87D000081
:1038380000ED00E0AAFF440038100020014B18609A
:10384800704700BF2C000020084B70B5C31A0D4606
:1038580007499B10044659434022064803F0FDFBE4
:103868002B4601462046BDE870401847B00D0020A1
:10387800B76DDBB6F8790000402373B50B4C0093A5
:10388800041B0B460D460A49A41061430646094A23
:10389800094803F00EFC011E05DA30462B4602B03B
:1038A800BDE87040184702B070BD00BFB00D0020E1
:1038B800B76DDBB625710000F879000070B50022FD
:1038C800012104460520FFF795F90F4801F088F813
:1038D8000E4B984215D103F043FE26690C49304639
:1038E80002F0B4FF00280BDB012535642469084980
:1038F80004F11C0002F0AAFF002801DB0020E564A7
:1039080070BD6FF00400FBE7513900000000AD0BFB
:10391800007E000001460C23002270B54B43084886
:10392800C4184033D4E90E561844A26303F082FB4E
:103938002DB132462B46BDE870400248184770BD8D
:10394800B00D0020F879000010B1012804D07047AC
:10395800034B1B6C5B0701D1FFF7DCBF704700BF4F
:10396800B00D002008B54FF02003EFF3118183F369
:103978001288BFF36F8F124A136843F00200106079
:10398800DA0708D481F31188BFF36F8FBDE80840C8
:10399800012003F0F3BD4FF05023D3F80C24D3F8E3
:1039A8000C34D307EED5074803F044FB81F31188A4
:1039B800BFF36F8FBDE808400020FFF7ABBF00BF23
:1039C800000E0020F00D00201FB500220123CDE9D4
:1039D80002236B46084ACDF800D0CDF804D003F096
:1039E80096FB002805DB4FF480420023684601F06F
:1039F800D3FE05B05DF804FB43710000074BD3E824
:103A0800EF2F22F00201C3E8E01F0028F7D1D30707
:103A180002D4012003F0F2BD704700BF000E002061
:103A28002DE9F041012207463749D1E8EF3FC1E8C7
:103A3800E02F0028F9D133B9344935484B60CB60C1
:103A48008A6002F016FF7B1E012B2BD8012F07D1AD
:103A58004FF05023D3F81C3403F00303022B21D07A
:103A680003F02BFE0546F8B92A4B1B78E3B14FF05B
:103A7800502302220646C3F808234FF05024DFF8EB
:103A88009880D4F81834D4F81824D20316D503F043
:103A98000303022B01D0012F10D175B386F31188CF
:103AA800BFF36F8FBDE8F0814FF02003EFF311866D
:103AB80083F31288BFF36F8F0125DEE7C5B1304667
:103AC800FFF70CF8D4F81835DBB2012BD9D1D4F8AC
:103AD8000421002AD5D00022C4F80421D4F80421F6
:103AE8000222C4F818252022C8F88021A360C8E75C
:103AF8000021212002F040F9E4E74FF05023022290
:103B0800C3F80423CEE700BFAC0D00209C0D0020B5
:103B1800CC0D00203D10002000E100E008B507486A
:103B280003F06FFD38B10648FFF788FE0448FDF73B
:103B380085FB002008BD6FF01200FBE7407A00000B
:103B48004D3B00000A2838B50446074D04D1AB6840
:103B58000D2128465B689847AB6803485B68E1B26B
:103B68009847204638BD00BF407A000030B540680D
:103B780001F01F04057BB2F5001F85B044EA451427
:103B880005D1204601F0C0F9002005B030BD002560
:103B9800B2F5800FCDE9025514D1B3F1007F0CBF07
:103BA800042305238DF8083000232046194602AA6D
:103BB80000F0E0FF1C4B984233D10121204601F070
:103BC8005FF9E1E7B3F1C06F20D0B3F1007F14BF14
:103BD800012302238DF808308368CB40D907E3D44A
:103BE800B2F1A07FE0D1114A04F01F03803352F8EC
:103BF8002330DB07D8D40DF107052946204601F00C
:103C0800EBF80B4B984203D00395CDE70323E1E78C
:103C1800284601F02FF9044B9842F5D06FF00B00BD
:103C2800B3E76FF01500B0E70000AD0B0025845036
:103C38000400AD0B10B501F00DF9044668B901F0A8
:103C4800E1F8084B98420AD12146074801F0BEF82E
:103C5800224605210D20FEF7CDFF002010BD6FF094
:103C68000400FBE70000AD0B753C0000430970B58C
:103C780007D10B4B596821B101250C68094E8540C5
:103C880001B970BD8A682A4002D030464B6898470F
:103C98001CB1236821461C46F2E72346FAE700BF19
:103CA800040E0020107A00002DE9FF41476801F05A
:103CB8001F053B7B144645EA43150E4628460DF181
:103CC800030101F089F814F4403F80460BD12846DF
:103CD80001F042F93C4B984503D19DF8030001F0EF
:103CE800C3F800200CE000232846194602AACDE9B3
:103CF800023300F03FFF344B984204D06FF01500B8
:103D080004B0BDE8F081804503D19DF8030001F0BF
:103D1800ABF8A30349D540F206332340B3F5837FBC
:103D280019D00CD8062B17D004D8ABB1022BE5D18B
:103D3800042311E0B3F5807FE0D101230CE040F2C9
:103D48000222934226D0B3F5407F25D0B3F5007FF9
:103D5800D4D1022300E007238DF8043084F48033A3
:103D6800C3F30043E0068DF805304CBF0323C4F3CA
:103D7800401321038DF8063010D501237A68B3402B
:103D880093600022284601A900F0A0FF0E4B98423C
:103D9800A7D0B3E70523DFE70323DDE7620341BFCD
:103DA80001237A68B340D360EBE7E3064FF00003E2
:103DB8004CBF0324C4F340141A46284601A98DF8C1
:103DC800044000F0D7FEE1E70000AD0BF0B54B79F9
:103DD800012B26D0032B21D110258B79032B1DD144
:103DE800CE790EB1012E19D10A7912B1022A15D154
:103DF8000E220B684468B3F5164F276867D02DD894
:103E0800B3F5165F66D016D8B3F5966F64D00AD8A6
:103E1800B3F5967F63D0B3F5167F63D06FF0850056
:103E280054E00025D9E7B3F5166F5ED0B3F5965F79
:103E3800F4D1384B3CE0B3F5E14F59D007D8B3F58E
:103E4800615F57D0B3F5964FE8D1334B30E047F672
:103E58001224A342E2D14FF4000329E0B3F5613FF5
:103E68004AD013D8B3F5963F49D009D84DF6C024A7
:103E7800A34246D0B3F5614FD0D14FF46B0317E09E
:103E8800B3F5E13FCAD14FF0EB7311E0B3F5612F01
:103E98003AD008D8214CA34239D0B3F5E12FBDD18F
:103EA8004FF0E86304E01E4CA342B7D14FF08053B3
:103EB8000469C7F82435436835431B682A43C3F8A7
:103EC8006C25231D03C983E803000020F0BD4FF4CF
:103ED8001D03EDE7134BEBE74FF49E23E8E74FF4A0
:103EE800A033E5E74FF41C33E2E74FF41D23DFE787
:103EF8000D4BDDE70D4BDBE74FF06C73D8E70C4B50
:103F0800D6E74FF46503D3E74FF07063D0E74FF07F
:103F18008063CDE700B0130000A04E0090D00300EE
:103F280040420F000050270000C0750000F03A0022
:103F380000903A0100212DE9F043476806693C6882
:103F480087B0C4F800153060D7F80C9080466A46F0
:103F5800484603F0D1F9051E25DB009BD9F800205F
:103F68001979186800F0F6FA051E1CDB4046311D69
:103F7800FFF72CFF0546B0B97B68990724D506F1F1
:103F8800180000F071FD244B984210D0234B059384
:103F9800022304932B466FF004054FF48251204806
:103FA80004AAFEF7FDF8284607B0BDE8F083337E83
:103FB80043F00043C4F8A031C4F88C300123327EAA
:103FC8009340184AC2F804350823C4F800353B7AF0
:103FD80053B9C4F81031D4F810317369C4F83435C2
:103FE8000123C4F8383523607B689A075CBF4FF417
:103FF8008073C4F804337B68DB0644BF4FF4800346
:10400800C4F804333369C4F844350023C4F8483588
:104018000123A360E360C6E70000AD0B378700000B
:10402800FC7C000000700150F8B504460D46076995
:1040380003F043FBB0B92E4B1B789BB16426606834
:1040480003F0EEF800BB012003F02EFA013EF6D192
:104058000021212001F090FEF0E786F31188BFF3DC
:104068006F8FF5E74FF02003EFF3118683F3128883
:10407800BFF36F8F6068314603F0D2F890B986F3CA
:104088001188BFF36F8FEDE74FF02003EFF3118630
:1040980083F31288BFF36F8F6068314603F0C0F86E
:1040A8000028DAD03B691D70626838691368C3F864
:1040B80044050120C3F848050020C3F82001D3F8BF
:1040C8002051C3F858015268D3F85801D20608D5D0
:1040D800082062681268C2F800054FF48002C3F82D
:1040E800042301229A6081F31188BFF36F8FF8BD12
:1040F8003D1000200123834070B5DC430B4AD2E811
:10410800EF1F01EA0405C2E8E65F002EF7D14FF47D
:10411800803282400648C0F80823BFF35F8FBFF3A0
:104128006F8F0B4214BF0120002070BD140E0020B9
:1041380000500150F8B51B49044622F07F45086835
:10414800C1E90023A5F50013101AB3F5400F0FD3EA
:1041580001F078FFA30003F1502303F58033D3F86F
:10416800402595421DD14FF40002C3F8402512E0C6
:104178000D4B1B681A0A1B065E190C4B42F100070F
:10418800C3E9006701F05EFF094A04F5A87352F815
:1041980023309D4205D14FF48033054AA340C2F82D
:1041A8004433F8BDF0060020180E0020F806002061
:1041B80000500150D9B101230D4A8340D2E8EFCF16
:1041C8004CEA030CC2E8E1CF0029F7D14FF4803361
:1041D800084A8340C2F80433074BD3E8AF3FC340D3
:1041E800DB0742BF4FF40012044BC3F800217047AD
:1041F800140E002000500150100E002000E100E0D5
:104208000D4B1868010A0006BFF35F8F0B4BD3F8FC
:104218000435181841F10001B3F5801F0AD2084B84
:10422800D3E90023904271EB030303D210F18070AD
:1042380041F10001704700BF180E002000500150E6
:10424800F80600202DE9F74F14461D460746FFF7EC
:1042580051FF0090FFF7D4FFA04271EB05037AD21B
:10426800444B201A65EB0101984271F100017DD29F
:10427800414B03EB0713D3E902239D4208BF944245
:1042880054D04FF4803324F07F4B5E4600214FEA30
:10429800870907F1500809F150294FEA8808BB40FF
:1042A80009F580391FFA88F808F150280193D9F8E0
:1042B8004005324B08F58038D3F804A5A0EB0A0076
:1042C80020F07F402AF07F420128C9F8402504D118
:1042D800132003F02CFB0021284B0AF1020CA6EB5B
:1042E8000C0020F07F40B0F5000F88BF6646C8F884
:1042F8000010019AD8F8000026F07F40C3F8442344
:10430800C9F84005D3F80405824506D0301A0238AA
:1043180020F07F40B0F5000F1BD8A6EB0B0626F067
:104328007F46361945F1000334461D4612490C985C
:1043380001EB0712C2E9024500243B01C8500D9B5E
:10434800536038460099FFF735FF204603B0BDE8B3
:10435800F08F3046B0E70123094ABB40D2E8EF0F9F
:104368001843C2E8E10F0029E0D0F7E76FF0150421
:10437800E7E700BF01000001E006002000500150FF
:10438800100E002073B500244FF0FF304FF0FF31BE
:10439800164D174BC5F80845C3E902014FF48033A1
:1043A80002264FF40012C5F80433124B0121C5F858
:1043B80004631520C3F880212246FEF71BFC152054
:1043C800FEF7FCFB01230C4AAB602B6013600B4B20
:1043D8000B4A0093204600230194FFF733FF304631
:1043E800FFF71EFB204602B070BD00BF0050015011
:1043F800E006002000E100E0140E00203D4100002E
:10440800FFFF7F002DE9F743314BD3F804239207D0
:104418000BD5D3F8042142B10022C3F804212D4A58
:10442800D3F804311368013313604FF02003EFF31E
:10443800118283F31288BFF36F8F254CD4F80433AD
:10444800DB0325D5244BD3E8EF1F21F00100C3E897
:10445800E50F002DF7D111B9D4F84031C3B10025CB
:10446800C4F84051D4F8403182F31188BFF36F8FFC
:10447800FFF7C6FE4FF02003EFF3118283F3128893
:10448800BFF36F8F154BD3E90267B042B94106D22B
:1044980082F31188BFF36F8F03B0BDE8F0834FF04C
:1044A800FF38D3E900104FF0FF391D60C3E90289D6
:1044B8004FF48033C4F8483382F31188BFF36F8F09
:1044C8000029E9D0009032463B4628468847E3E772
:1044D80000500150180E0020100E0020E0060020A9
:1044E800431C13B520D0012820DDB0F5000F1FDADA
:1044F800441EFFF785FE0F4BD3E90013421AB2F5AD
:10450800000F28BF00240C4801322244824228BFF1
:1045180002460020521809490190009143F1000316
:10452800FFF790FE02B010BD0348E1E70024E0E782
:10453800014CDEE7F0060020FFFF7F003D41000050
:1045480008B5FFF75DFE024B1B68C01A08BD00BF27
:10455800F00600202DE9F04101273F4E00EB8101D4
:10456800814202D10020BDE8F081056805F07F0393
:10457800C5F343247F2B4FEA154508BF4FF0FF339F
:10458800192D66D8DFE805F00D161B1E212D1E65B6
:104598006565653151656565656565656565545C25
:1045A8005F62C2F80C3503F01F0507FA05F5B56020
:1045B800012502E0C2F814350025AC461CE0C2F81B
:1045C8000835F0E7C2F81035F6E70025C2F80835D7
:1045D80003F01F0C07FA0CFCC6F80CC04FF0010CD6
:1045E8000AE0C2F80C350125F2E7C2F80835002CBC
:1045F800E2D100250624AC4650F804EB24020EF460
:104608000058B8F1000F1CBF4FF0000C0125CEF385
:10461800C11E44EA8E0403F01F0344EA0C0444EA72
:104628004504803346F823409AE7C2F80C35DEE7A4
:10463800C2F860350568C5F38035002DD3D0B2E7E0
:10464800C2F86435F6E7C2F86835F3E7C2F86C35A6
:10465800F0E76FF0850086E7002584507FB5FDF709
:10466800BFFC074B059302230493064800234FF42D
:10467800825104AAFDF794FD0020FEF7C1FE00BF99
:104688007A870000B47C0000F0B5466805690746E3
:10469800F06887B0A860328AB17A42F4B01202F0AA
:1046A8004CFE0446F0B9012205F11C00114603F046
:1046B80025F8F06868603289317842F4803202F077
:1046C8003CFE044670B901223378144802FA03F319
:1046D800C5E90503686805F110018368DB6923B93A
:1046E8006FF00404204607B0F0BD98470028F7DBB8
:1046F8004FF070723178686802F039FE044658B19C
:10470800074B05930223049300234FF48251054875
:1047180004AAFDF745FDE5E72F60E3E79F73000076
:10472800978700009C7C00002DE9F04387B004695E
:10473800D0F8048094F83E5000AF002D4DD144F6D7
:10474800CD42002304F11C0001F026F8064658B3B8
:104758006E4688B06A46224B53614FF416739361D4
:10476800032342F8103F4FF4C2512B461D48FDF772
:1047780017FDB54660684FF0707298F8001002F0A7
:10478800F6FD044658B1184B7B6102233B610023B8
:104798004FF48251134807F11002FDF701FD20463E
:1047A8001C37BD46BDE8F0834FF018090546204682
:1047B8006D0002F010FE00B10135B9F10109F6D122
:1047C80094F83C30B34203DC85F40005E562D1E798
:1047D800204602F000FE0136F2E76FF00C04DEE737
:1047E800B98700009C7C00009787000008B54FF44B
:1047F8007F03D3F83021D3F83431BFF34F8F092A20
:1048080001BF4FF050230022C3F81421C3F8182128
:1048180002F039FE28B101224D4BC3F8382AC3F8FB
:1048280078254FF47F03D3F83021D3F83431BFF320
:104838004F8F092A05D1012B1EBF0122444BC3F813
:10484800782502F020FE18B10E22424BC3F8E42E60
:104858004FF47F03D3F83021D3F83431BFF34F8FAF
:10486800092A06D100223A4BC3F80C270122C3F8C3
:1048780010270022D30003F57F03D3F80013BFF3FA
:104888004F8F013108D0D3F800130132D3F8043325
:10489800B2F5807F0B60EDD12F4BDA69BFF34F8FF4
:1048A800D10745D5BFF34F8F2C4BD3F80024012AED
:1048B800FBD1C3F80425D3F80024012AFBD1264BE9
:1048C800DA69BFF34F8FD2070AD5DA6922F00102FD
:1048D800DA61BFF34F8F214AD2F80034012BFBD1A4
:1048E8001D4A136ABFF34F8F01330CD1136A23F0AB
:1048F800FF0343F020031362BFF34F8F174AD2F828
:104908000034012BFBD10022144BC3F80425D3F843
:104918000024012AFBD1BFF34F8F1149114BCA68FC
:1049280002F4E0621343CB60BFF34F8F00BFFDE793
:104938001B6ABFF34F8F0133B4D0094AD2F88C30C9
:1049480043F44063C2F88C30074B084A1A6008BD2C
:104958000040005000A003500080FF00009003506A
:1049680000ED00E00400FA05A80000200090D00344
:1049780070B501250268B2FA82F3C3F11F03DBB2F6
:1049880005FA03F422EA0404D0E8EF6F964204D152
:10499800C0E8EC4FBCF1000FF6D1EBD101480B7029
:1049A80070BD00BF0000AD0B10B50368CB40DB073E
:1049B80010D401238B40026843EA0201D0E8EF4F8C
:1049C800944204D1C0E8EC1FBCF1000FF6D1F2D13B
:1049D800014810BD0148FCE70000AD0B0400AD0B19
:1049E800044B1A7922B9012218601A7102487047DB
:1049F800024870471C0E00200000AD0B0C00AD0BE8
:104A08004FF0502310B5D3F8002152B10020C3F85D
:104A18000001D3F800210122C3F80823114B1B68B9
:104A280098474FF05023D3F804218AB10022C3F8E5
:104A38000421D3F80421D3F81824D3F8181402F069
:104A48000302012A4FF0020103D1C3F818159A6036
:104A580010BDC3F80813034B0120BDE810401B68C4
:104A6800184700BF1C0E002001460148FFF780BF11
:104A7800AC000020064A00F01F0002EB8002D2F8CA
:104A8800003223F4403343EA0143C2F8003270474E
:104A980000258450034B083033F81000C0F3401051
:104AA800704700BFB000002070B50D4C00F108033E
:104AB80034F813300546DA050E4607D5C3F3432309
:104AC80004EBC302526854F833309847A3682BB1FB
:104AD80031462846E268BDE87040184770BD00BFFF
:104AE800B000002010B4124A083032F81030D9054E
:104AF8001BD5C3F3432123F4F85322F810300020C8
:104B080002F10E0434F8023F13F4807F03D0C3F39C
:104B18004323994209D001302028F3D1002342F8D9
:104B28003130044810BCFFF73FBF10BC704700BFCE
:104B3800B00000200401002038B50246FFF7AAFFA4
:104B48000B4C02F1080560B1002134F815305B0BFD
:104B58009B0003F1A04303F55043C3F81015C3F8B5
:104B680010151046FFF7BEFF002324F8153038BD96
:104B7800B00000202DE9F34104461D4609B34E4F0D
:104B880000F1080837F81860B30706D5FFF782FF69
:104B980018B14A4802B0BDE8F081494804F01F0343
:104BA80000EB8300D0F80032097823F00F0326F0D9
:104BB800020643EA810346F00106C0F8003227F8EE
:104BC80018609AB13C4E04F1080736F817101378AC
:104BD80011F0020F50680CD00028DAD136F81720EF
:104BE80022F01C0242EA830326F81730D5BB354869
:104BF800D0E721F02001C904C90C26F817100028B5
:104C0800ECD0032BC5D8526892F800C062469200D7
:104C180002F1A04202F5504223B9C2F81035C2F899
:104C28001035DBE7D2F8100541EA4C3120F00300DB
:104C3800C2F81005D2F8100541F0200120F44730E1
:104C480020F44070C2F810052002D2F810E500F4F4
:104C5800F85040EA034040EA0E00C2F8100526F872
:104C68001710BBE72046D5E90067FFF73BFF002E8A
:104C7800BDD0114DD5E90023964201D19F4218D0ED
:104C880011480DF10701FFF773FE0E4B984281D1D1
:104C98009DF8072005EBC20308345F6035F814302F
:104CA80045F8326043EA422343F4807325F8143010
:104CB8009DE70022EEE700BFB00000200400AD0B26
:104CC800002584500000AD0B04010020F8B504460F
:104CD80079B33A4E00F1080736F81750AB0704D4F9
:104CE800FFF7D8FE08B13648F8BD15F01C0F4B7811
:104CF80022D104F01F00DFF8CCC000F1800E5CF870
:104D08002EC091F802E05B002CF4E16C097843EACC
:104D18008E032CF0070C43EA0C0343EA01232949CC
:104D280043F00103803045F0030541F8203026F8B0
:104D3800175022B92448D7E7012BDAD1D3E71F4E01
:104D480004F1080736F817008307CCD592F800C09D
:104D58000023614620F02000890001F1A041C00431
:104D680001F55041C00CC1F8103526F81700C1F8FC
:104D780010355578002DDDD0D1F81035927823F410
:104D8800981323F4F853C1F81035D1F810E523022D
:104D980003F4F8532D0443EA0E0305F440351205D5
:104DA8002B4302F4801240EA4C30134340F02000B9
:104DB800C1F8103526F81700BCE700BFB000002086
:104DC8000400AD0B002584500000AD0B014BC3E976
:104DD80002017047B000002008B50246FFF75AFEEE
:104DE80038B1054B083233F8123004485B0B0B70AE
:104DF80008BD0348FCE700BFB00000200000AD0B71
:104E08000400AD0B38B50F4C94F85850BDB940228A
:104E1800294604F1100002F0F8F80D20FDF7CEFE47
:104E2800094B0A48C3F87C51D3F87C214FF0004263
:104E3800C3F80423012384F85830636538BD044857
:104E4800FCE700BFB000002000D000500000AD0B10
:104E58000500AD0B034B93F85800003818BF01202C
:104E6800704700BFB000002001460148FFF79CBD15
:104E78000001002001460148FFF77ABD000100202B
:104E8800024610B5FFF706FE1C4B02F1080433F882
:104E98001430E0B113F0020419D15B0B9A0002F14F
:104EA800A04000F5514002F1A042046002F55042D2
:104EB8000068D2F8100540F00100C2F8100529B1C9
:104EC800012202FA03F30E4AC2F8043310BDC3F3F9
:104ED8008203042B0ED0052B0ED00A4B196902F061
:104EE8001F03D94001F0010102311046BDE810400E
:104EF800FFF7C0BD0321F8E70221F6E7B000002064
:104F080000D000500025845008B50246FFF7C2FDC6
:104F1800C0B10F4B02F1080133F81130990711D4D1
:104F280001225B0B9A400B499B0003F1A043C1F897
:104F3800082303F55043D3F8102522F00302C3F8E1
:104F4800102508BD0021BDE808401046FFF792BDB6
:104F5800B000002000D0005010B50C4B00F1080242
:104F680033F812300446DB070DD5FFF7CDFF204696
:104F7800FFF7E2FD0222064B04F01F0480340548C7
:104F880043F8242010BD0448FCE700BFB00000200F
:104F9800002584500000AD0B0400AD0B2DE9F04F47
:104FA800002501222C464D4B4D484E4985B01E68C0
:104FB80036B1D0F8046316421EBF1C601E68154344
:104FC80004338B424FEA4202F1D1454FD7F87C3186
:104FD80093B1454E336A039333624FF0010A0DF1E2
:104FE8000C09039870B9C7F87C01D7F87C31336A8B
:104FF80003933362002BF0D10124002D56D105B064
:10500800BDE8F08F90FAA0FBBBFA8BFB374A0BF197
:1050180008034FEADB0C32F813100BF0070419F8F9
:105028000C300AFA04F423EA040309F80C3006EBFE
:105038008B03D3F80042C1F38202C9069046C4F339
:10504800014418D5114658460193FFF72DFD019BE1
:10505800E4B2D3F80032C3F301439C4207D10021E4
:105068005846FFF707FD21465846FFF703FD0AFAA1
:105078000BF03062B5E7022C0CD103215846FFF73C
:10508800F9FC08F00503012BF1D141465846FFF71A
:105098000BFDECE7022158460192FFF7EBFC019A61
:1050A800032AF2D0032CE2D18A42EDE795FAA5F360
:1050B800B3FA83F304FA03F29B0003F1A04303F568
:1050C8005043D3F81005D3F81015C0F30420C1F3EA
:1050D800014125EA0205FFF7E7FC8EE700D1005001
:1050E80000D0005020D1005000258450B00000208E
:1050F8002DE9F04786B005460E4600AF4FF0200375
:10510800EFF3118883F31288BFF36F8F00F04EFE20
:10511800042D98BF2C4BE9468AB004466A4694BFD2
:1051280053F82530294BD36140F201334FF0000A80
:1051380093842749274BC2E90515C2F820A042F8F5
:10514800103F4FF4315153462348FDF729F8CD4617
:105158007EB1F369C3F308035BB1204B7B61022383
:105168003B614FF4825153461B4807F11002FDF78B
:1051780017F82CB1204602F0A9FA08B1037803B950
:105188001748E9468AB06A46164BD061C2E9053429
:1051980040F201331384144B42F8103F00234FF4BC
:1051A80011510D48FCF7FCFF3146CD462846FFF764
:1051B80055FA88F31188BFF36F8F2046FEF76AF916
:1051C8001837BD46BDE8F087247F0000E28700005D
:1051D800F887000005000001E47C0000208800003A
:1051E800F087000041880000040000010F4B70B5F3
:1051F80053F82040013053F82060A64200D870BD13
:10520800D4E90035284698476DB138B10028B8BFB1
:105218004042FF28A8BFFF20EB681870EA6853785F
:1052280043F0010353700834E7E700BF387F0000FC
:10523800012208B5094B03201A70FFF7D7FF01F0C8
:105248002DF80420FFF7D2FF00F058F9FBF792FD84
:10525800034A137B23F00103137308BD3D1000209C
:105268008007002008B50348034A0021121A02F0FB
:10527800D3F908BD2002002040100020002301229D
:1052880070B586B0CDE904230F220193CDE902322F
:1052980018234FF4A0720E4D0E4E03FB00550E4915
:1052A80006EBC016044602FB00110C4B3046009575
:1052B80000F0C8F8737B2C7523F004037373084B54
:1052C800013403EBC423EE606B6006B070BD00BF11
:1052D800240E002000070020401B0020BD550000C0
:1052E8004013002080B50020A6B0FFF77FFF2E4BAB
:1052F80003F5006282F3088883F30A880024E02318
:105308002A4D2B4E85F82230EC772C766C76AC76CD
:1053180085F820406B6A274F43F4E0236B6285F8D9
:105328002340FEF71BF8FDF7C5FB4FF0FF33AB62D8
:10533800EB62FEF75DFAFEF7C3F8FCF7C5FD40F235
:105348000113ADF8243006ABB360CDE91F442294B5
:1053580002F056F90120FFF749FF0220164DFFF72A
:1053680045FF00F07BFC154BF561059301231449BB
:105378004FF48062CDE9034328463B46CDE901441A
:10538800009400F05FF806466A7B284622F0040283
:105398006A7302F01BFA2046FFF770FF3A4631465F
:1053A8002846FDF7CFFC00BF4013002000ED00E0C9
:1053B800240E002039520000800700207C80000065
:1053C800801C0020002038B5054C064DAC4200D3A7
:1053D80038BD204602F024F90028F9DB1C34F5E733
:1053E800BC010020BC01002073B50C464FF020051D
:1053F800EFF3118185F31288BFF36F8F45695DB1B3
:1054080025602B684361836901338361002081F340
:105418001188BFF36F8F11E052EA030603D16FF0D2
:105428000B002560F3E7CDE900230246083000F0C1
:105438001FFB18B9024B9B685B69236002B070BD03
:10544800240E00202DE9FF410E9E00F15805067339
:105458000426C0E916550025044646730D9EC0E98A
:1054680006558673D61D0C9A26F00706C0E919164C
:105478008560C573C56602920B9A01EB0608019216
:105488000A9A00924246FDF741FC054B65659B6808
:1054980003B11B6F4046236704B0BDE8F08100BF2D
:1054A800240E0020F0B5002587B00595109DDDE994
:1054B800127604950F9D044603950E9D02950D9D49
:1054C80001950C9D0095FFF7BDFFB6F1FF3F08BFA2
:1054D800B7F1FF3F05D056EA070305D1204600F093
:1054E8003DFB204607B0F0BD3A463346024904F179
:1054F800180000F029FDF4E7417700002DE9F0439A
:10550800294C2A4D87B02646AE4204F130040FD309
:1055180000F074FB4FF4004640F2E737224CDFF806
:105528009090AC4220D307B0BDE8F04300F07ABBBE
:1055380054F8043C059354F8103C049354F8143C74
:10554800039354F8183C029354F81C3C019354F804
:10555800203C009354E90A2354E90C01FFF772FF39
:1055680054F8303C5E65CEE7636A5A1C0DD00021C2
:10557800384623EAE373C3FB060151EAC333D4F880
:10558800008004D1404600F0E9FA3034C9E74FF40E
:105598007A720023FBF7CAF902460B4608F1180095
:1055A800494600F0D1FCF0E7787C0000787C0000E8
:1055B8004177000008B50B4C0B4D4FF02002EFF37C
:1055C800118382F31288BFF36F8F02F07EF92B7874
:1055D800A06113B9FDF774FAEFE7FDF7BFF80028EB
:1055E800EBD1F7E7240E00203D1000202DE9F34110
:1055F800044617461E464FF02003EFF3118883F345
:105608001288BFF36F8FC368334A7BB18068916893
:10561800884219D057EA060318D188F31188BFF3D6
:105628006F8F6FF00F0002B0BDE8F081916891F9BB
:105638000E100133E36093682161A36088F3118839
:10564800BFF36F8F0020EEE72169F2E791F90E10A2
:1056580090F90E306FF07E029942A8BF1946914228
:10566800B8BF11468B422EDD02F039F805462246B6
:105678004146CDE90076194800F0FAF90028E1D052
:105688004FF02003EFF3118683F31288BFF36F8F77
:10569800A068D0B1236821699C420AD04BB193F924
:1056A8000E309942A8BF19466FF07E039942B8BFE1
:1056B800194602F014F840B13146084800F03CFAA7
:1056C8006FF00A00AFE70025D1E7002DF4D186F38B
:1056D8001188BFF36F8FF3E7240E00203E100020DF
:1056E80038B5836804466BB3194A926893422CD143
:1056F800C368012B03D9013BC360002038BD4FF0BC
:105708002003EFF3118583F31288BFF36F8F0169CC
:10571800806801F0E4FF204602F08FF8A06058B1DD
:1057280090F90E2022610022826702F04FF8294684
:10573800084800F001FAE0E7E06085F31188BFF35C
:105748006F8FDAE76FF01500D8E74FF0FF30D5E735
:10575800240E00203E10002038B504464FF02003E8
:10576800EFF3118583F31288BFF36F8F02F065F8AA
:1057780048B10022826702F029F82946BDE838407E
:10578800044800F0D9B9D4E902329A4218BF01336B
:10579800A360F2E73E10002013B54FF02004EFF3AA
:1057A800118184F31288BFF36F8F846844B1013C80
:1057B800846081F31188BFF36F8F002002B010BDA1
:1057C80052EA030406D181F31188BFF36F8F6FF09B
:1057D8000F00F3E7CDE900230246024800F048F93C
:1057E800ECE700BF3E10002038B5074D2C6854B1D7
:1057F800FEF7A6FE054B04441C6128680021BDE89D
:10580800384002F072B838BD540E0020240E002033
:1058180038B50D4D2B4653F8204F9C4200D004B9A3
:10582800EC68AB6838B95A7BD20604D1A26912B9C0
:10583800DA897F2A05D89C4202D02046FFF7D4FF98
:105848002346EB6138BD00BF240E002070B590F9E7
:105858000D200146002A437B04DA03F07F034373DB
:1058680001F058FF154A4B7B104663F07F034B73DA
:1058780050F8203F546A834208BF002323B9C1E986
:105888000004216051620CE091F90E5093F90E600A
:10589800B5420ED0AE420CDD5868C1E90030016057
:1058A80059609068BDE87040431A58425841FFF764
:1058B800AFBF9C42E3D01B68E0E700BF240E002086
:1058C80070B490F90D30427B002B29DBD30627D129
:1058D80083692BBB134962F07F0242730A4652F870
:1058E800204F944218BF23464C6A23B9C0E90024CC
:1058F800206048620CE090F90E5093F90E60B542B2
:105908000AD0AE4208DD5A68C0E90032106058601B
:10591800002070BCFFF77CBFA342E7D01B68E4E718
:1059280070BC7047240E002008B590F90D20014680
:10593800002A437B04DA03F07F03437301F0EAFE95
:10594800044B9868431A58425841BDE80840FFF78D
:105958005FBF00BF240E002070B515461C460646E2
:1059680001F00CFFB4F1FF3F08BFB5F1FF3F08D0CD
:105978002A46234606F118000249BDE8704000F0A7
:10598800E3BA70BD41770000F8B504460D464FF004
:105998002003EFF3118783F31288BFF36F8F00267C
:1059A8004FF4004C40F2E73031464FF47A7200234E
:1059B800E4FB0C01FAF7BAFFB44202DD0228B8BFD3
:1059C8000220074A074B1060074A98681E61156055
:1059D800FFF70AFF87F31188BFF36F8FF8BD00BF89
:1059E800540E0020240E0020500E002038B54FF031
:1059F8002003EFF3118583F31288BFF36F8F174BE2
:105A0800174A9C6811688C4207D12046FFF7ECFEC4
:105A180085F31188BFF36F8F38BD00211160114ADB
:105A28001268C2B1E2897F2A15D8627BD20612D1E8
:105A38000D4A94F90E10126891420CDB0B4A9442FD
:105A480009D01A69824203DC2046FFF7FFFEDCE733
:105A5800121A1A61DCE70022FBE700BF240E0020BF
:105A68004C0E0020540E0020500E0020000700208D
:105A780070B50C480C4D86680C462E601146DDE961
:105A880004234FF02006EFF3118586F31288BFF345
:105A98006F8F8068FFF760FF2046BDE87040FDF714
:105AA800DFB800BF240E00204C0E0020F8B50446D5
:105AB8004FF02003EFF3118683F31288BFF36F8F43
:105AC800437B49B2DA0619D18569BDB903F07F0372
